:020000040000FA
:1000000070100020AD060000C7060000C906000001
:1000100000000000000000000000000000000000E0
:10002000000000000000000000000000CB060000FF
:100030000000000000000000CD060000CF06000018
:10004000D1060000D1060000D1060000D106000054
:10005000D10600000000000023020000D1060000CD
:10006000D1060000D1060000D1060000D106000034
:10007000D1060000D1060000D1060000D106000024
:10008000D1060000D1060000D1060000D106000014
:10009000D1060000D1060000D1060000D106000004
:1000A000D1060000D10600000000000000000000A2
:1000B0000000000000000000000000000000000040
:1000C00000F002F800F03EF80CA030C80838241800
:1000D0002D18A246671EAB4654465D46AC4201D180
:1000E00000F030F87E460F3E0FCCB6460126334274
:1000F00000D0FB1AA246AB4633431847F007000076
:1001000010080000103A02D378C878C1FAD8520714
:1001100001D330C830C101D504680C6070470000BD
:100120000023002400250026103A01D378C1FBD813
:10013000520700D330C100D50B6070471FB51FBDFB
:1001400010B510BD00F09FFB1146FFF7F7FF00F060
:100150007AF800F0B7FB03B4FFF7F2FF03BC00F03E
:10016000BDFB0000401E00BF00BF00BF00BF00BFBE
:1001700000BF00BF00BF00BF00BF00BF00BFF1D184
:1001800070470000401E00BF00BF00BF00BF00BF9F
:1001900000BF00BF00BF00BF00BF00BF00BFF1D164
:1001A00070470000012383401946534B5B68C340EE
:1001B000DA07D20F002A02D14F4B996001E04E4B73
:1001C000D960704770B5082000F087F8092000F06A
:1001D00084F808240125002D06D100BF0120A0408D
:1001E0004549C86000BF02E0204600F07FF800BF2C
:1001F000002001468A0005231B07072424021B193F
:1002000084001A5100BF70BD0620012181403B4A85
:10021000116000BF3A483B49086101203A494860F3
:10022000704710B539480068012808D13648406841
:10023000C007C00F002802D0002034490860082001
:10024000FFF7B0FF10BDFFB0FFB084B0FFF7BAFFFB
:10025000FFF7DAFF00F088F8092000F047F80020E7
:100260001023122211210090132000F0D7F98027CB
:10027000F90002A800F0D6FA00252DE0962000F043
:100280009BF80920FFF78EFF00F042F80446210E8C
:1002900068460171FF2000042040010C684641714E
:1002A000FF2000022040010A68468171C4710026C7
:1002B00004E001A9885D00F096F9761C042EF8DBB5
:1002C000204600F0DDFAEA0002AB9A1803C26D1C6A
:1002D000802D00D1002500BFD0E7032105221207A1
:1002E00007231B02D2188300D1507047012181409F
:1002F000014A9160704700000005005000E100E0F5
:100300000100030000650040006300400061004000
:10031000FEB504260020019000906B4601AA3146EC
:100320002248006800F0D2F869460878000649784B
:100330000904084369468978090208436946C9786F
:1003400008430446B0062040050F0027002D04D0C6
:100350001748A0434009474204E0002D02D1144849
:10036000204047093846FEBD10B500242246002132
:10037000084600F02FF80D490860FFF7C9FF0D4946
:100380000860012010BD7CB504460D460226002001
:10039000019000906846047145716B4601AA314690
:1003A0000248006800F092F87CBD000000000020C8
:1003B000E0FFFF0F0400002001B505E00098401E9B
:1003C00000900348FFF7CEFE00980028F6D108BD44
:1003D000E7030000F7B506460F46002E01D1694835
:1003E00000E069480446002E1ED1192000F0B1F843
:1003F000142000F0AEF80021162000F0B3F8182009
:1004000000F0A7F81920052109026118886014205E
:1004100081016118C8601620052109026118086170
:10042000182000F0A9F81EE01D2000F092F8152019
:1004300000F08FF80021172000F094F81C2000F045
:1004400088F81D2005210902611888601520052102
:1004500009026118C86017200521090261180861A6
:100460001C2000F089F8012000070521090261180D
:100470004862002F06D0012F06D0022F06D0032F8E
:1004800008D105E0002507E0022505E0042503E08A
:10049000062501E0002500BF00BF0298002806D015
:1004A00001202843052109026118486503E0052061
:1004B0000002201845650021FF200930015101206C
:1004C00005210902611808602046FEBDFFB581B014
:1004D00000270026019D2B48019D854201D118244B
:1004E00000E01C2400BF0120A0402849C86000BFD4
:1004F00027E00398805D052109026918C86100E0C2
:100500007F1CFF2009304059002803D1032000033D
:100510008742F5D303200003874205D1204600F02F
:100520002BF8002005B0F0BD0021FF20093041511B
:100530000520000228188069C1B204988155701CFA
:1005400086B202988642D4DB204600F015F80120DE
:10055000E8E703210522120707231B02D2188300B4
:10056000D150704710B58A0005231B0707242402C9
:100570001B1984001A5110BD01218140034A91606A
:10058000704700000030004000400040000500506F
:1005900000BF424880680128FBD100203F498860A5
:1005A0003F488069C0B2704770B504460D460126C9
:1005B0000AE02046641E002804DB7D20C000FFF70F
:1005C000E1FD01E0002603E0344880680128F0D115
:1005D00000BF002C05DB002030498860304880696E
:1005E0002870304670BD2E49C86100BF2B49C969CB
:1005F0000129FBD10021294AD161704730B503465A
:10060000002528466D1C1C5C05E02046FFF7EBFF2B
:1006100028466D1C1C5C002CF7D130BDF8B5074690
:100620000C4615461E46204600F025F800213046AF
:1006300000F02AF81A48C4604661069800280DD0D8
:10064000384600F018F80021284600F01DF814483C
:1006500005618760012012494031C8621148104984
:1006600048620420086001200F498860086000206B
:100670000A498860F8BD03210522120707231B02DF
:10068000D2188300D150704710B58A0005231B078C
:10069000072424021B1984001A5110BD00210040B8
:1006A0000025004000509D000020004003210C4820
:1006B00002680A4302600B4802680A4302600A4863
:1006C00080470A480047FEE7FEE7FEE7FEE7FEE751
:1006D000FEE7000006480749074A084B704700003C
:1006E0002405004054050040A5070000C10000009B
:1006F000700000207010002070080020700800209A
:1007000032483349086070473248008CC0B2012833
:1007100012D13048808C0007000F00280CD12D48E2
:10072000806AF0210840402806D12A48C06A084063
:10073000002801D1012070470020FCE72548008CEB
:10074000C0B201282CD12348808C0007000F00285C
:1007500026D12048806AF0210840002806D11D4893
:10076000C06A0840002801D1012070471948806AFA
:10077000F0210840102806D11648C06A0840002819
:1007800001D10120F1E71348806AF02108403028A8
:1007900006D11048C06A0840002801D10120E4E7D2
:1007A0000020E2E710B5FFF7C9FF002805D00A488E
:1007B0000A494860C8130A498861FFF7A5FF002865
:1007C00002D001200749886010BD00000024F40019
:1007D00008000020C00F00F0DFFF07C00005004048
:1007E000006C00400006004001E004C0091F04291D
:1007F000FBD28B0701D50280801CC90700D0027094
:10080000704700290BD0C30702D00270401C491E5C
:10081000022904D3830702D50280801C891EE3E7E6
:100820000022EEE70022DFE77047704770471F2283
:10083000030C02D10F22000402D0030E03D004E007
:100840000020014670470002083A030F01D1000161
:10085000121F830F01D18000921E002801DB40008F
:10086000521E120551184205C01241181046704719
:10087000C10FC90700D04042012292071143D6E7B9
:1008800001218907D3E7754600F024F8AE4605003C
:1008900069465346C008C000854618B020B5FFF72A
:1008A00019FF60BC00274908B6460026C0C5C0C570
:1008B000C0C5C0C5C0C5C0C5C0C5C0C5403D490054
:1008C0008D46704710B50446C046C0462046FFF727
:1008D00042FC10BD004870470C0000200149182060
:1008E000ABBEFEE726000200704700000C090000C6
:1008F000000000200C0000000401000018090000A6
:100900000C00002064100000200100000000000026
:08091000000000000024F400C7
:04000005000000C136
:00000001FF
